:0200000049298C
:10000800FF00030E8301C8000A08C7008A017008B0
:10001800A1000B1C112886018801FD308B052108E1
:10002800F00047088A00480E8300FF0E7F0E090083
:08003800FA1FF213003008006A
:0E004000F201F101F001F801F30100300800B7
:10004E007B15FB1F31280130F300F201F101F001A5
:08005E00FA0DF20CFF3008005E
:10006600A0017208031D48287108F2007008F1000B
:10007600F001A0157208031D48287108F200F1016D
:10008600A01120167208031956282008F302031D32
:10009600031C5A280310F21B5E28F00DF10DF20D19
:1000A600F30B4E285A280130FC002020612802302C
:0E00B600FC00272061280430FC001C200800FC
:1000C40083120313FA017308031D7A147708031DBE
:1000D400FA147A080319AE28033A031979287A180E
:1000E4007628F61FAC28AA28F21FAA28AC28720882
:1000F4008039FA00F21376088039F6137A06031968
:1001040087287A080319AA28AC28770873020319E8
:100114008E28031CA228A6287608720203199528A3
:10012400031CA228A6287508710203199C28031C25
:10013400A228A628740870020319AE280318A6285A
:10014400FA080319AC28AA28FA080319AA28AC2823
:100154000314080003100800031403150800080022
:10016400831203137008F8007108F000F101F20122
:10017400F301FB01FC019630F300FA017008F10071
:0C0184007808F000F801F20133200800B8
:0E0190008312031343088A004208820008000D
:10019E0083120313C401C5014408F0004508F100A1
:1001AE00B2200030F4000030F5000030F60081304F
:1001BE00F7006220013003180030F00070080319B8
:0C01CE00EC28C40A0319C50AD328080055
:1001DA000030831203134A06031DF528013049062D
:1001EA00031DF9288814FB28FD308805FE30880590
:0E01FA00CF20FE308805CF200814CF2008004B
:10020800831203131A08F100981C0C2918121816E7
:060218007108F00008006F
:0E021E000030831203138C1A0130F000080028
:10022C008316031398169030831298008316871741
:10023C00071383128C1E25291A08F0001F290800A9
:10024C000030831203134A06031D2E290130490680
:10025C00031D322986143429FD308605FB308605B2
:0E026C00CF20FB308605CF200615CF200800DE
:10027A00C8208A110A128000840AC20A0319C30A12
:08028A00F003031D3D290800EB
:10029200B83083120313A2000B30A300A030A400D5
:1002A2000F30A500A030A6000F30A700F430A80040
:1002B2000130A900F430AA000130AB00B830AC0024
:1002C2000B30AD00E830AE000330AF00F430B000C8
:1002D2000130B100D030B2000730B300D030B400EA
:1002E2000730B500E830B6000330B700B830B800C8
:1002F2000B30B900D030BA000730BB00D030BC00A0
:100302000730BD00F430BE000130BF00B830C0007D
:100312000B30C1000C30831688000130860090300B
:100322008B0033309900181516210F21700803191C
:10033200AD2A04217008C6007008533A031DAD2A85
:1003420000302D06031DA72900302C060319B12900
:10035200C901CA01ED200130AC02031CAD03A12981
:1003620000302506031DB729003024060319C129D0
:10037200C901CA0126210130A402031CA503B12927
:1003820000302306031DC729003022060319D32992
:100392000130C9000030CA00ED200130A202031C66
:1003A200A303C12900302706031DD92900302606E0
:1003B2000319E5290130C9000030CA0026210130A5
:1003C200A602031CA703D32900302B06031DEB2929
:1003D20000302A060319F529C901CA01ED200130AE
:1003E200AA02031CAB03E52900302906031DFB29E1
:1003F200003028060319052AC901CA012621013045
:10040200A802031CA903F52900303B06031D0B2A91
:1004120000303A060319152AC901CA01ED2001303C
:10042200BA02031CBB03052A00303906031D1B2A2E
:10043200003038060319252AC901CA0126210130D4
:10044200B802031CB903152A00303D06031D2B2AEE
:1004520000303C060319372A0130C9000030CA00B7
:10046200ED200130BC02031CBD03252A00304106E9
:10047200031D3D2A003040060319492A0130C900F4
:100482000030CA0026210130C002031CC103372AF2
:1004920000303F06031D4F2A00303E060319592A39
:1004A200C901CA01ED200130BE02031CBF03492A63
:1004B20000303106031D5F2A003030060319692A15
:1004C200C901CA0126210130B002031CB103592A15
:1004D20000302F06031D6F2A00302E060319792AD9
:1004E200C901CA01ED200130AE02031CAF03692A23
:1004F20000303306031D7F2A003032060319892A91
:10050200C901CA0126210130B202031CB303792AB0
:1005120000303706031D8F2A0030360603199B2A46
:100522000130C9000030CA00ED200130B602031CC0
:10053200B703892A00303506031DA12A003034068C
:100542000319AD2A0130C9000030CA00262101304A
:0C055200B402031CB5039B2A9629AE2AB4
:02400E004A2F37
:00000001FF
